{
  "contractName": "DocumentFactory",
  "abi": [
    {
      "constant": true,
      "inputs": [
        {
          "name": "",
          "type": "address"
        }
      ],
      "name": "ownerDocumentCount",
      "outputs": [
        {
          "name": "",
          "type": "uint256"
        }
      ],
      "payable": false,
      "stateMutability": "view",
      "type": "function"
    },
    {
      "constant": true,
      "inputs": [],
      "name": "owner",
      "outputs": [
        {
          "name": "",
          "type": "address"
        }
      ],
      "payable": false,
      "stateMutability": "view",
      "type": "function"
    },
    {
      "constant": true,
      "inputs": [
        {
          "name": "",
          "type": "uint256"
        }
      ],
      "name": "documents",
      "outputs": [
        {
          "name": "owner",
          "type": "address"
        },
        {
          "name": "created",
          "type": "uint256"
        },
        {
          "name": "key",
          "type": "string"
        },
        {
          "name": "value",
          "type": "string"
        }
      ],
      "payable": false,
      "stateMutability": "view",
      "type": "function"
    },
    {
      "constant": false,
      "inputs": [
        {
          "name": "newOwner",
          "type": "address"
        }
      ],
      "name": "transferOwnership",
      "outputs": [],
      "payable": false,
      "stateMutability": "nonpayable",
      "type": "function"
    },
    {
      "inputs": [],
      "payable": false,
      "stateMutability": "nonpayable",
      "type": "constructor"
    },
    {
      "anonymous": false,
      "inputs": [
        {
          "indexed": true,
          "name": "owner",
          "type": "address"
        },
        {
          "indexed": false,
          "name": "key",
          "type": "string"
        },
        {
          "indexed": false,
          "name": "value",
          "type": "string"
        }
      ],
      "name": "NewDocument",
      "type": "event"
    },
    {
      "anonymous": false,
      "inputs": [
        {
          "indexed": true,
          "name": "previousOwner",
          "type": "address"
        },
        {
          "indexed": true,
          "name": "newOwner",
          "type": "address"
        }
      ],
      "name": "OwnershipTransferred",
      "type": "event"
    },
    {
      "constant": false,
      "inputs": [
        {
          "name": "key",
          "type": "string"
        },
        {
          "name": "value",
          "type": "string"
        }
      ],
      "name": "createDocument",
      "outputs": [],
      "payable": true,
      "stateMutability": "payable",
      "type": "function"
    },
    {
      "constant": true,
      "inputs": [
        {
          "name": "_owner",
          "type": "address"
        }
      ],
      "name": "getDocumentsByOwner",
      "outputs": [
        {
          "name": "",
          "type": "uint256[]"
        }
      ],
      "payable": false,
      "stateMutability": "view",
      "type": "function"
    }
  ],
  "bytecode": "0x6060604052341561000f57600080fd5b336000806101000a81548173ffffffffffffffffffffffffffffffffffffffff021916908373ffffffffffffffffffffffffffffffffffffffff16021790555033600160006101000a81548173ffffffffffffffffffffffffffffffffffffffff021916908373ffffffffffffffffffffffffffffffffffffffff160217905550610bbc8061009f6000396000f300606060405260043610610078576000357c0100000000000000000000000000000000000000000000000000000000900463ffffffff168063688433841461007d5780637ddfc7d4146100ca5780638da5cb5b1461015857806393ebc4c8146101ad578063c2ed2b0514610242578063f2fde38b146103be575b600080fd5b341561008857600080fd5b6100b4600480803573ffffffffffffffffffffffffffffffffffffffff169060200190919050506103f7565b6040518082815260200191505060405180910390f35b34156100d557600080fd5b610101600480803573ffffffffffffffffffffffffffffffffffffffff1690602001909190505061040f565b6040518080602001828103825283818151815260200191508051906020019060200280838360005b83811015610144578082015181840152602081019050610129565b505050509050019250505060405180910390f35b341561016357600080fd5b61016b61054a565b604051808273ffffffffffffffffffffffffffffffffffffffff1673ffffffffffffffffffffffffffffffffffffffff16815260200191505060405180910390f35b610240600480803590602001908201803590602001908080601f0160208091040260200160405190810160405280939291908181526020018383808284378201915050505050509190803590602001908201803590602001908080601f01602080910402602001604051908101604052809392919081815260200183838082843782019150505050505091905050610570565b005b341561024d57600080fd5b61026360048080359060200190919050506107de565b604051808573ffffffffffffffffffffffffffffffffffffffff1673ffffffffffffffffffffffffffffffffffffffff16815260200184815260200180602001806020018381038352858181546001816001161561010002031660029004815260200191508054600181600116156101000203166002900480156103285780601f106102fd57610100808354040283529160200191610328565b820191906000526020600020905b81548152906001019060200180831161030b57829003601f168201915b50508381038252848181546001816001161561010002031660029004815260200191508054600181600116156101000203166002900480156103ab5780601f10610380576101008083540402835291602001916103ab565b820191906000526020600020905b81548152906001019060200180831161038e57829003601f168201915b5050965050505050505060405180910390f35b34156103c957600080fd5b6103f5600480803573ffffffffffffffffffffffffffffffffffffffff1690602001909190505061083b565b005b60036020528060005260406000206000915090505481565b610417610990565b61041f610990565b600080600360008673ffffffffffffffffffffffffffffffffffffffff1673ffffffffffffffffffffffffffffffffffffffff1681526020019081526020016000205460405180591061046f5750595b9080825280602002602001820160405250925060009150600090505b60028054905081101561053f578473ffffffffffffffffffffffffffffffffffffffff166002828154811015156104be57fe5b906000526020600020906004020160000160009054906101000a900473ffffffffffffffffffffffffffffffffffffffff1673ffffffffffffffffffffffffffffffffffffffff1614156105325780838381518110151561051b57fe5b906020019060200201818152505081806001019250505b808060010191505061048b565b829350505050919050565b600160009054906101000a900473ffffffffffffffffffffffffffffffffffffffff1681565b6105786109a4565b6080604051908101604052803373ffffffffffffffffffffffffffffffffffffffff168152602001428152602001848152602001838152509050600280548060010182816105c691906109ef565b9160005260206000209060040201600083909190915060008201518160000160006101000a81548173ffffffffffffffffffffffffffffffffffffffff021916908373ffffffffffffffffffffffffffffffffffffffff160217905550602082015181600101556040820151816002019080519060200190610649929190610a21565b506060820151816003019080519060200190610666929190610a21565b50505050600360003373ffffffffffffffffffffffffffffffffffffffff1673ffffffffffffffffffffffffffffffffffffffff168152602001908152602001600020600081548092919060010191905055503373ffffffffffffffffffffffffffffffffffffffff167f28dd67fc0074d77d9e92d184a4e1cc85748afad10387c19a159584cab232f2388484604051808060200180602001838103835285818151815260200191508051906020019080838360005b8381101561073757808201518184015260208101905061071c565b50505050905090810190601f1680156107645780820380516001836020036101000a031916815260200191505b50838103825284818151815260200191508051906020019080838360005b8381101561079d578082015181840152602081019050610782565b50505050905090810190601f1680156107ca5780820380516001836020036101000a031916815260200191505b5094505050505060405180910390a2505050565b6002818154811015156107ed57fe5b90600052602060002090600402016000915090508060000160009054906101000a900473ffffffffffffffffffffffffffffffffffffffff1690806001015490806002019080600301905084565b6000809054906101000a900473ffffffffffffffffffffffffffffffffffffffff1673ffffffffffffffffffffffffffffffffffffffff163373ffffffffffffffffffffffffffffffffffffffff1614151561089657600080fd5b600073ffffffffffffffffffffffffffffffffffffffff168173ffffffffffffffffffffffffffffffffffffffff16141515156108d257600080fd5b8073ffffffffffffffffffffffffffffffffffffffff166000809054906101000a900473ffffffffffffffffffffffffffffffffffffffff1673ffffffffffffffffffffffffffffffffffffffff167f8be0079c531659141344cd1fd0a4f28419497f9722a3daafe3b4186f6b6457e060405160405180910390a3806000806101000a81548173ffffffffffffffffffffffffffffffffffffffff021916908373ffffffffffffffffffffffffffffffffffffffff16021790555050565b602060405190810160405280600081525090565b608060405190810160405280600073ffffffffffffffffffffffffffffffffffffffff168152602001600081526020016109dc610aa1565b81526020016109e9610aa1565b81525090565b815481835581811511610a1c57600402816004028360005260206000209182019101610a1b9190610ab5565b5b505050565b828054600181600116156101000203166002900490600052602060002090601f016020900481019282601f10610a6257805160ff1916838001178555610a90565b82800160010185558215610a90579182015b82811115610a8f578251825591602001919060010190610a74565b5b509050610a9d9190610b23565b5090565b602060405190810160405280600081525090565b610b2091905b80821115610b1c57600080820160006101000a81549073ffffffffffffffffffffffffffffffffffffffff02191690556001820160009055600282016000610b039190610b48565b600382016000610b139190610b48565b50600401610abb565b5090565b90565b610b4591905b80821115610b41576000816000905550600101610b29565b5090565b90565b50805460018160011615610100020316600290046000825580601f10610b6e5750610b8d565b601f016020900490600052602060002090810190610b8c9190610b23565b5b505600a165627a7a723058201198d4e4ae80db0eaddfc8b4b40f09ce7a441494edf76dae89400d6d5604b7b00029",
  "source": "pragma solidity ^0.4.18;\n\nimport \"./Ownable.sol\";\n\ncontract DocumentFactory is Ownable {\n    address public owner;\n\n    event NewDocument(address indexed owner, string key, string value);\n\n    // Documents are stored on IPFS. The IPFS hash is stored in the contract.\n    // Allow for documents to be extensible\n    // Link document to owner or identity?\n    // Document has a bounty to it. That is payed to the notaries for validation\n    // Let the market set the price for validation\n    struct Document {\n        address owner;\n        uint created;\n        string key;\n        string value;\n        //string key2;\n        //string value2;\n        //string key3;\n        //string value3;\n        //State state;\n        //uint bounty;\n        //uint verifiedCount;\n        //bool encrypted;\n        //bool privacy;\n    }\n\n    Document[] public documents;\n    mapping (address => uint) public ownerDocumentCount;\n\n    function DocumentFactory() {\n        owner = msg.sender;\n    }\n\n    function createDocument(string key, string value) payable public {\n        Document memory document = Document(msg.sender, now, key, value);\n\n        documents.push(document);\n        ownerDocumentCount[msg.sender]++;\n\n        NewDocument(msg.sender, key, value);\n    }\n\n    function getDocumentsByOwner(address _owner) view returns (uint[]) {\n        uint[] memory result = new uint[](ownerDocumentCount[_owner]);\n        uint counter = 0;\n\n        for (uint i = 0; i < documents.length; i++) {\n            if (documents[i].owner == _owner) {\n                result[counter] = i;\n                counter++;\n            }\n        }\n\n        return result;\n    }\n}\n",
  "sourcePath": "/Users/morion4000/Projects/whoami/contracts/DocumentFactory.sol",
  "compiler": {
    "name": "solc",
    "version": "0.4.19+commit.c4cbbb05.Emscripten.clang"
  },
  "schemaVersion": "1.0.1",
  "updatedAt": "2018-04-06T13:15:18.433Z"
}