{
  "contractName": "IdentityFactory",
  "abi": [
    {
      "constant": true,
      "inputs": [
        {
          "name": "",
          "type": "address"
        }
      ],
      "name": "ownerIdentity",
      "outputs": [
        {
          "name": "owner",
          "type": "address"
        },
        {
          "name": "created",
          "type": "uint256"
        },
        {
          "name": "verifiedCountSum",
          "type": "uint256"
        }
      ],
      "payable": false,
      "stateMutability": "view",
      "type": "function"
    },
    {
      "constant": true,
      "inputs": [],
      "name": "owner",
      "outputs": [
        {
          "name": "",
          "type": "address"
        }
      ],
      "payable": false,
      "stateMutability": "view",
      "type": "function"
    },
    {
      "constant": true,
      "inputs": [
        {
          "name": "",
          "type": "uint256"
        }
      ],
      "name": "identities",
      "outputs": [
        {
          "name": "owner",
          "type": "address"
        },
        {
          "name": "created",
          "type": "uint256"
        },
        {
          "name": "verifiedCountSum",
          "type": "uint256"
        }
      ],
      "payable": false,
      "stateMutability": "view",
      "type": "function"
    },
    {
      "constant": false,
      "inputs": [
        {
          "name": "newOwner",
          "type": "address"
        }
      ],
      "name": "transferOwnership",
      "outputs": [],
      "payable": false,
      "stateMutability": "nonpayable",
      "type": "function"
    },
    {
      "inputs": [],
      "payable": false,
      "stateMutability": "nonpayable",
      "type": "constructor"
    },
    {
      "anonymous": false,
      "inputs": [
        {
          "indexed": true,
          "name": "owner",
          "type": "address"
        },
        {
          "indexed": false,
          "name": "created",
          "type": "uint256"
        }
      ],
      "name": "NewIdentity",
      "type": "event"
    },
    {
      "anonymous": false,
      "inputs": [
        {
          "indexed": true,
          "name": "previousOwner",
          "type": "address"
        },
        {
          "indexed": true,
          "name": "newOwner",
          "type": "address"
        }
      ],
      "name": "OwnershipTransferred",
      "type": "event"
    },
    {
      "constant": false,
      "inputs": [],
      "name": "createIdentity",
      "outputs": [],
      "payable": false,
      "stateMutability": "nonpayable",
      "type": "function"
    },
    {
      "constant": true,
      "inputs": [],
      "name": "getOwnerIdentity",
      "outputs": [
        {
          "name": "",
          "type": "address"
        },
        {
          "name": "",
          "type": "uint256"
        },
        {
          "name": "",
          "type": "uint256"
        }
      ],
      "payable": false,
      "stateMutability": "view",
      "type": "function"
    }
  ],
  "bytecode": "0x6060604052341561000f57600080fd5b336000806101000a81548173ffffffffffffffffffffffffffffffffffffffff021916908373ffffffffffffffffffffffffffffffffffffffff16021790555033600160006101000a81548173ffffffffffffffffffffffffffffffffffffffff021916908373ffffffffffffffffffffffffffffffffffffffff1602179055506108868061009f6000396000f300606060405260043610610078576000357c0100000000000000000000000000000000000000000000000000000000900463ffffffff16806359d21ad91461007d578063678b2132146100925780636d42c687146101195780638da5cb5b1461017c578063eaaf77e6146101d1578063f2fde38b14610242575b600080fd5b341561008857600080fd5b61009061027b565b005b341561009d57600080fd5b6100c9600480803573ffffffffffffffffffffffffffffffffffffffff169060200190919050506104bb565b604051808473ffffffffffffffffffffffffffffffffffffffff1673ffffffffffffffffffffffffffffffffffffffff168152602001838152602001828152602001935050505060405180910390f35b341561012457600080fd5b61012c610505565b604051808473ffffffffffffffffffffffffffffffffffffffff1673ffffffffffffffffffffffffffffffffffffffff168152602001838152602001828152602001935050505060405180910390f35b341561018757600080fd5b61018f6105fe565b604051808273ffffffffffffffffffffffffffffffffffffffff1673ffffffffffffffffffffffffffffffffffffffff16815260200191505060405180910390f35b34156101dc57600080fd5b6101f26004808035906020019091905050610624565b604051808473ffffffffffffffffffffffffffffffffffffffff1673ffffffffffffffffffffffffffffffffffffffff168152602001838152602001828152602001935050505060405180910390f35b341561024d57600080fd5b610279600480803573ffffffffffffffffffffffffffffffffffffffff1690602001909190505061067d565b005b33600360003373ffffffffffffffffffffffffffffffffffffffff1673ffffffffffffffffffffffffffffffffffffffff16815260200190815260200160002060000160006101000a81548173ffffffffffffffffffffffffffffffffffffffff021916908373ffffffffffffffffffffffffffffffffffffffff16021790555042600360003373ffffffffffffffffffffffffffffffffffffffff1673ffffffffffffffffffffffffffffffffffffffff168152602001908152602001600020600101819055506002805480600101828161035791906107d2565b91600052602060002090600302016000600360003373ffffffffffffffffffffffffffffffffffffffff1673ffffffffffffffffffffffffffffffffffffffff16815260200190815260200160002090919091506000820160009054906101000a900473ffffffffffffffffffffffffffffffffffffffff168160000160006101000a81548173ffffffffffffffffffffffffffffffffffffffff021916908373ffffffffffffffffffffffffffffffffffffffff16021790555060018201548160010155600282015481600201555050503373ffffffffffffffffffffffffffffffffffffffff167fc7f3d2b3977e13ae215fd76b8cc82cb8a4f50ed99c5b36a0e2f2eead84270381600360003373ffffffffffffffffffffffffffffffffffffffff1673ffffffffffffffffffffffffffffffffffffffff168152602001908152602001600020600101546040518082815260200191505060405180910390a2565b60036020528060005260406000206000915090508060000160009054906101000a900473ffffffffffffffffffffffffffffffffffffffff16908060010154908060020154905083565b6000806000600360003373ffffffffffffffffffffffffffffffffffffffff1673ffffffffffffffffffffffffffffffffffffffff16815260200190815260200160002060000160009054906101000a900473ffffffffffffffffffffffffffffffffffffffff16600360003373ffffffffffffffffffffffffffffffffffffffff1673ffffffffffffffffffffffffffffffffffffffff16815260200190815260200160002060010154600360003373ffffffffffffffffffffffffffffffffffffffff1673ffffffffffffffffffffffffffffffffffffffff16815260200190815260200160002060020154925092509250909192565b600160009054906101000a900473ffffffffffffffffffffffffffffffffffffffff1681565b60028181548110151561063357fe5b90600052602060002090600302016000915090508060000160009054906101000a900473ffffffffffffffffffffffffffffffffffffffff16908060010154908060020154905083565b6000809054906101000a900473ffffffffffffffffffffffffffffffffffffffff1673ffffffffffffffffffffffffffffffffffffffff163373ffffffffffffffffffffffffffffffffffffffff161415156106d857600080fd5b600073ffffffffffffffffffffffffffffffffffffffff168173ffffffffffffffffffffffffffffffffffffffff161415151561071457600080fd5b8073ffffffffffffffffffffffffffffffffffffffff166000809054906101000a900473ffffffffffffffffffffffffffffffffffffffff1673ffffffffffffffffffffffffffffffffffffffff167f8be0079c531659141344cd1fd0a4f28419497f9722a3daafe3b4186f6b6457e060405160405180910390a3806000806101000a81548173ffffffffffffffffffffffffffffffffffffffff021916908373ffffffffffffffffffffffffffffffffffffffff16021790555050565b8154818355818115116107ff576003028160030283600052602060002091820191016107fe9190610804565b5b505050565b61085791905b8082111561085357600080820160006101000a81549073ffffffffffffffffffffffffffffffffffffffff0219169055600182016000905560028201600090555060030161080a565b5090565b905600a165627a7a723058209c2148eaf52ac8b698ba46dbdcf271c9a57e4e02b9b5bf7f0c2ce417f7f44c320029",
  "source": "pragma solidity ^0.4.18;\n\nimport \"./Ownable.sol\";\n\ncontract IdentityFactory is Ownable {\n    address public owner;\n\n    event NewIdentity(address indexed owner, uint created);\n\n    // Allow for an identity to be marked as compromised by the owner\n    // The identity can be unmarked only by an Oracle\n    enum State { Created, Locked, Inactive, Compromised, Revoked }\n\n    struct Identity {\n        address owner;\n        uint created;\n        //State state;\n        // Sum of document's verifiedCount\n        uint verifiedCountSum;\n    }\n\n    Identity[] public identities;\n    mapping (address => Identity) public ownerIdentity;\n\n    function IdentityFactory() {\n        owner = msg.sender;\n    }\n\n    function createIdentity() public {\n        ownerIdentity[msg.sender].owner = msg.sender;\n        ownerIdentity[msg.sender].created = now;\n        //ownerIdentity[msg.sender].state = State.Created;\n\n        identities.push(ownerIdentity[msg.sender]);\n\n        NewIdentity(msg.sender, ownerIdentity[msg.sender].created);\n    }\n\n    function getOwnerIdentity() public view returns (address, uint, uint) {\n      return (\n        ownerIdentity[msg.sender].owner,\n        ownerIdentity[msg.sender].created,\n        ownerIdentity[msg.sender].verifiedCountSum\n      );\n    }\n}\n",
  "sourcePath": "/Users/morion4000/Projects/whoami/contracts/IdentityFactory.sol",
  "compiler": {
    "name": "solc",
    "version": "0.4.19+commit.c4cbbb05.Emscripten.clang"
  },
  "schemaVersion": "1.0.1",
  "updatedAt": "2018-04-06T12:21:35.499Z"
}