{
  "contractName": "Whoami",
  "abi": [
    {
      "constant": true,
      "inputs": [
        {
          "name": "",
          "type": "address"
        }
      ],
      "name": "ownerIdentity",
      "outputs": [
        {
          "name": "owner",
          "type": "address"
        },
        {
          "name": "created",
          "type": "uint256"
        },
        {
          "name": "verifiedCountSum",
          "type": "uint256"
        }
      ],
      "payable": false,
      "stateMutability": "view",
      "type": "function"
    },
    {
      "constant": true,
      "inputs": [
        {
          "name": "",
          "type": "address"
        }
      ],
      "name": "ownerDocumentCount",
      "outputs": [
        {
          "name": "",
          "type": "uint256"
        }
      ],
      "payable": false,
      "stateMutability": "view",
      "type": "function"
    },
    {
      "constant": true,
      "inputs": [],
      "name": "owner",
      "outputs": [
        {
          "name": "",
          "type": "address"
        }
      ],
      "payable": false,
      "stateMutability": "view",
      "type": "function"
    },
    {
      "constant": true,
      "inputs": [
        {
          "name": "",
          "type": "uint256"
        }
      ],
      "name": "documents",
      "outputs": [
        {
          "name": "owner",
          "type": "address"
        },
        {
          "name": "created",
          "type": "uint256"
        },
        {
          "name": "key",
          "type": "string"
        },
        {
          "name": "value",
          "type": "string"
        }
      ],
      "payable": false,
      "stateMutability": "view",
      "type": "function"
    },
    {
      "constant": true,
      "inputs": [
        {
          "name": "",
          "type": "uint256"
        }
      ],
      "name": "identities",
      "outputs": [
        {
          "name": "owner",
          "type": "address"
        },
        {
          "name": "created",
          "type": "uint256"
        },
        {
          "name": "verifiedCountSum",
          "type": "uint256"
        }
      ],
      "payable": false,
      "stateMutability": "view",
      "type": "function"
    },
    {
      "inputs": [],
      "payable": false,
      "stateMutability": "nonpayable",
      "type": "constructor"
    },
    {
      "anonymous": false,
      "inputs": [
        {
          "indexed": false,
          "name": "owner",
          "type": "address"
        },
        {
          "indexed": false,
          "name": "created",
          "type": "uint256"
        }
      ],
      "name": "NewIdentity",
      "type": "event"
    },
    {
      "anonymous": false,
      "inputs": [
        {
          "indexed": false,
          "name": "what",
          "type": "string"
        },
        {
          "indexed": false,
          "name": "ipfsHash",
          "type": "string"
        }
      ],
      "name": "NewDocument",
      "type": "event"
    },
    {
      "constant": false,
      "inputs": [],
      "name": "createIdentity",
      "outputs": [],
      "payable": false,
      "stateMutability": "nonpayable",
      "type": "function"
    },
    {
      "constant": false,
      "inputs": [
        {
          "name": "key",
          "type": "string"
        },
        {
          "name": "value",
          "type": "string"
        }
      ],
      "name": "createDocument",
      "outputs": [],
      "payable": true,
      "stateMutability": "payable",
      "type": "function"
    },
    {
      "constant": true,
      "inputs": [
        {
          "name": "_owner",
          "type": "address"
        }
      ],
      "name": "getDocumentsByOwner",
      "outputs": [
        {
          "name": "",
          "type": "uint256[]"
        }
      ],
      "payable": false,
      "stateMutability": "view",
      "type": "function"
    },
    {
      "constant": true,
      "inputs": [],
      "name": "getOwnerIdentity",
      "outputs": [
        {
          "name": "",
          "type": "address"
        },
        {
          "name": "",
          "type": "uint256"
        },
        {
          "name": "",
          "type": "uint256"
        }
      ],
      "payable": false,
      "stateMutability": "view",
      "type": "function"
    }
  ],
  "bytecode": "0x6060604052341561000f57600080fd5b336000806101000a81548173ffffffffffffffffffffffffffffffffffffffff021916908373ffffffffffffffffffffffffffffffffffffffff160217905550610f1f8061005e6000396000f300606060405260043610610099576000357c0100000000000000000000000000000000000000000000000000000000900463ffffffff16806359d21ad91461009e578063678b2132146100b3578063688433841461013a5780636d42c687146101875780637ddfc7d4146101ea5780638da5cb5b1461027857806393ebc4c8146102cd578063c2ed2b0514610362578063eaaf77e6146104de575b600080fd5b34156100a957600080fd5b6100b161054f565b005b34156100be57600080fd5b6100ea600480803573ffffffffffffffffffffffffffffffffffffffff169060200190919050506107ac565b604051808473ffffffffffffffffffffffffffffffffffffffff1673ffffffffffffffffffffffffffffffffffffffff168152602001838152602001828152602001935050505060405180910390f35b341561014557600080fd5b610171600480803573ffffffffffffffffffffffffffffffffffffffff169060200190919050506107f6565b6040518082815260200191505060405180910390f35b341561019257600080fd5b61019a61080e565b604051808473ffffffffffffffffffffffffffffffffffffffff1673ffffffffffffffffffffffffffffffffffffffff168152602001838152602001828152602001935050505060405180910390f35b34156101f557600080fd5b610221600480803573ffffffffffffffffffffffffffffffffffffffff16906020019091905050610907565b6040518080602001828103825283818151815260200191508051906020019060200280838360005b83811015610264578082015181840152602081019050610249565b505050509050019250505060405180910390f35b341561028357600080fd5b61028b610a42565b604051808273ffffffffffffffffffffffffffffffffffffffff1673ffffffffffffffffffffffffffffffffffffffff16815260200191505060405180910390f35b610360600480803590602001908201803590602001908080601f0160208091040260200160405190810160405280939291908181526020018383808284378201915050505050509190803590602001908201803590602001908080601f01602080910402602001604051908101604052809392919081815260200183838082843782019150505050505091905050610a67565b005b341561036d57600080fd5b6103836004808035906020019091905050610bb5565b604051808573ffffffffffffffffffffffffffffffffffffffff1673ffffffffffffffffffffffffffffffffffffffff16815260200184815260200180602001806020018381038352858181546001816001161561010002031660029004815260200191508054600181600116156101000203166002900480156104485780601f1061041d57610100808354040283529160200191610448565b820191906000526020600020905b81548152906001019060200180831161042b57829003601f168201915b50508381038252848181546001816001161561010002031660029004815260200191508054600181600116156101000203166002900480156104cb5780601f106104a0576101008083540402835291602001916104cb565b820191906000526020600020905b8154815290600101906020018083116104ae57829003601f168201915b5050965050505050505060405180910390f35b34156104e957600080fd5b6104ff6004808035906020019091905050610c12565b604051808473ffffffffffffffffffffffffffffffffffffffff1673ffffffffffffffffffffffffffffffffffffffff168152602001838152602001828152602001935050505060405180910390f35b33600260003373ffffffffffffffffffffffffffffffffffffffff1673ffffffffffffffffffffffffffffffffffffffff16815260200190815260200160002060000160006101000a81548173ffffffffffffffffffffffffffffffffffffffff021916908373ffffffffffffffffffffffffffffffffffffffff16021790555042600260003373ffffffffffffffffffffffffffffffffffffffff1673ffffffffffffffffffffffffffffffffffffffff168152602001908152602001600020600101819055506001805480600101828161062b9190610c6b565b91600052602060002090600302016000600260003373ffffffffffffffffffffffffffffffffffffffff1673ffffffffffffffffffffffffffffffffffffffff16815260200190815260200160002090919091506000820160009054906101000a900473ffffffffffffffffffffffffffffffffffffffff168160000160006101000a81548173ffffffffffffffffffffffffffffffffffffffff021916908373ffffffffffffffffffffffffffffffffffffffff16021790555060018201548160010155600282015481600201555050507fc7f3d2b3977e13ae215fd76b8cc82cb8a4f50ed99c5b36a0e2f2eead8427038133600260003373ffffffffffffffffffffffffffffffffffffffff1673ffffffffffffffffffffffffffffffffffffffff16815260200190815260200160002060010154604051808373ffffffffffffffffffffffffffffffffffffffff1673ffffffffffffffffffffffffffffffffffffffff1681526020018281526020019250505060405180910390a1565b60026020528060005260406000206000915090508060000160009054906101000a900473ffffffffffffffffffffffffffffffffffffffff16908060010154908060020154905083565b60046020528060005260406000206000915090505481565b6000806000600260003373ffffffffffffffffffffffffffffffffffffffff1673ffffffffffffffffffffffffffffffffffffffff16815260200190815260200160002060000160009054906101000a900473ffffffffffffffffffffffffffffffffffffffff16600260003373ffffffffffffffffffffffffffffffffffffffff1673ffffffffffffffffffffffffffffffffffffffff16815260200190815260200160002060010154600260003373ffffffffffffffffffffffffffffffffffffffff1673ffffffffffffffffffffffffffffffffffffffff16815260200190815260200160002060020154925092509250909192565b61090f610c9d565b610917610c9d565b600080600460008673ffffffffffffffffffffffffffffffffffffffff1673ffffffffffffffffffffffffffffffffffffffff168152602001908152602001600020546040518059106109675750595b9080825280602002602001820160405250925060009150600090505b600380549050811015610a37578473ffffffffffffffffffffffffffffffffffffffff166003828154811015156109b657fe5b906000526020600020906004020160000160009054906101000a900473ffffffffffffffffffffffffffffffffffffffff1673ffffffffffffffffffffffffffffffffffffffff161415610a2a57808383815181101515610a1357fe5b906020019060200201818152505081806001019250505b8080600101915050610983565b829350505050919050565b6000809054906101000a900473ffffffffffffffffffffffffffffffffffffffff1681565b610a6f610cb1565b6080604051908101604052803373ffffffffffffffffffffffffffffffffffffffff16815260200142815260200184815260200183815250905060038054806001018281610abd9190610cfc565b9160005260206000209060040201600083909190915060008201518160000160006101000a81548173ffffffffffffffffffffffffffffffffffffffff021916908373ffffffffffffffffffffffffffffffffffffffff160217905550602082015181600101556040820151816002019080519060200190610b40929190610d2e565b506060820151816003019080519060200190610b5d929190610d2e565b50505050600460003373ffffffffffffffffffffffffffffffffffffffff1673ffffffffffffffffffffffffffffffffffffffff16815260200190815260200160002060008154809291906001019190505550505050565b600381815481101515610bc457fe5b90600052602060002090600402016000915090508060000160009054906101000a900473ffffffffffffffffffffffffffffffffffffffff1690806001015490806002019080600301905084565b600181815481101515610c2157fe5b90600052602060002090600302016000915090508060000160009054906101000a900473ffffffffffffffffffffffffffffffffffffffff16908060010154908060020154905083565b815481835581811511610c9857600302816003028360005260206000209182019101610c979190610dae565b5b505050565b602060405190810160405280600081525090565b608060405190810160405280600073ffffffffffffffffffffffffffffffffffffffff16815260200160008152602001610ce9610e04565b8152602001610cf6610e04565b81525090565b815481835581811511610d2957600402816004028360005260206000209182019101610d289190610e18565b5b505050565b828054600181600116156101000203166002900490600052602060002090601f016020900481019282601f10610d6f57805160ff1916838001178555610d9d565b82800160010185558215610d9d579182015b82811115610d9c578251825591602001919060010190610d81565b5b509050610daa9190610e86565b5090565b610e0191905b80821115610dfd57600080820160006101000a81549073ffffffffffffffffffffffffffffffffffffffff02191690556001820160009055600282016000905550600301610db4565b5090565b90565b602060405190810160405280600081525090565b610e8391905b80821115610e7f57600080820160006101000a81549073ffffffffffffffffffffffffffffffffffffffff02191690556001820160009055600282016000610e669190610eab565b600382016000610e769190610eab565b50600401610e1e565b5090565b90565b610ea891905b80821115610ea4576000816000905550600101610e8c565b5090565b90565b50805460018160011615610100020316600290046000825580601f10610ed15750610ef0565b601f016020900490600052602060002090810190610eef9190610e86565b5b505600a165627a7a72305820b37fae039f02bccaf40d2db63de2f83d6d9f80fff6b1786f515db4402ed6cb260029",
  "source": "pragma solidity ^0.4.18;\n\ncontract Whoami {\n    address public owner;\n\n    event NewIdentity(address owner, uint created);\n    event NewDocument(string what, string ipfsHash);\n\n    // Allow for an identity to be marked as compromised by the owner\n    // The identity can be unmarked only by an Oracle\n    enum State { Created, Locked, Inactive, Compromised, Revoked }\n\n    struct Identity {\n        address owner;\n        uint created;\n        //State state;\n        // Sum of document's verifiedCount\n        uint verifiedCountSum;\n    }\n\n    // Implement notary/middleman system that is comprised of third-party\n    // oracles that verify the information i.e. documents/phone num/email/etc\n    // Can multiple notaries verify the same information?\n    // Is there a reputation indicator for Notary?\n    // if no, how are they incentivised ?\n    // if yes, how do you prevent Sibyl attacks?\n    // struct Notary {}\n\n    // Documents are stored on IPFS. The IPFS hash is stored in the contract.\n    // Allow for documents to be extensible\n    // Link document to owner or identity?\n    // Document has a bounty to it. That is payed to the notaries for validation\n    // Let the market set the price for validation\n    struct Document {\n        address owner;\n        uint created;\n        string key;\n        string value;\n        //string key2;\n        //string value2;\n        //string key3;\n        //string value3;\n        //State state;\n        //uint bounty;\n        //uint verifiedCount;\n        //bool encrypted;\n        //bool privacy;\n    }\n\n    Identity[] public identities;\n    mapping (address => Identity) public ownerIdentity;\n\n    Document[] public documents;\n    mapping (address => uint) public ownerDocumentCount;\n\n    /**\n     * @dev Throws if called by any account other than the owner.\n     */\n    modifier onlyOwner() {\n        require(msg.sender == owner);\n        _;\n    }\n\n    function Whoami() {\n        owner = msg.sender;\n    }\n\n    function createIdentity() public {\n        ownerIdentity[msg.sender].owner = msg.sender;\n        ownerIdentity[msg.sender].created = now;\n        //ownerIdentity[msg.sender].state = State.Created;\n\n        identities.push(ownerIdentity[msg.sender]);\n\n        NewIdentity(msg.sender, ownerIdentity[msg.sender].created);\n    }\n\n    // Creating documents have a bounty attached to the which is used to pay\n    // notaries\n    function createDocument(string key, string value) payable public {\n        Document memory document = Document(msg.sender, now, key, value);\n\n        documents.push(document);\n        ownerDocumentCount[msg.sender]++;\n\n        //NewDocument(_what, _ipfsHash);\n    }\n\n    function getDocumentsByOwner(address _owner) view returns (uint[]) {\n        uint[] memory result = new uint[](ownerDocumentCount[_owner]);\n        uint counter = 0;\n\n        for (uint i = 0; i < documents.length; i++) {\n            if (documents[i].owner == _owner) {\n                result[counter] = i;\n                counter++;\n            }\n        }\n\n        return result;\n    }\n\n    function getOwnerIdentity() public view returns (address, uint, uint) {\n      return (ownerIdentity[msg.sender].owner, ownerIdentity[msg.sender].created, ownerIdentity[msg.sender].verifiedCountSum);\n    }\n}\n",
  "sourcePath": "/Users/morion4000/Projects/whoami/contracts/Whoami.sol",
  "compiler": {
    "name": "solc",
    "version": "0.4.19+commit.c4cbbb05.Emscripten.clang"
  },
  "schemaVersion": "1.0.1",
  "updatedAt": "2018-03-01T16:06:07.598Z"
}